{
  "transactions": [
    {
      "hash": "0x2e0769710390a264d4c46d65fb93d7c36dfa18aff23a21e0db880e91ab2a8b3a",
      "transactionType": "CALL",
      "contractName": "Wow",
      "contractAddress": "0x6f725f3c39a6e65b336db0af1b65eb34ab9a8ae3",
      "function": "buy(address,address,address,string,uint8,uint256,uint160)",
      "arguments": [
        "0x0000c1E5C9d12c8c52eb319AF11dA44bb84779d2",
        "0x0000c1E5C9d12c8c52eb319AF11dA44bb84779d2",
        "0x0000000000000000000000000000000000000000",
        "gmgmgm",
        "0",
        "108900000000",
        "0"
      ],
      "transaction": {
        "from": "0x0000c1e5c9d12c8c52eb319af11da44bb84779d2",
        "to": "0x6f725f3c39a6e65b336db0af1b65eb34ab9a8ae3",
        "gas": "0x37236",
        "value": "0x30e4f9b400",
        "input": "0x472e64900000000000000000000000000000c1e5c9d12c8c52eb319af11da44bb84779d20000000000000000000000000000c1e5c9d12c8c52eb319af11da44bb84779d2000000000000000000000000000000000000000000000000000000000000000000000000000000000000000000000000000000000000000000000000000000e00000000000000000000000000000000000000000000000000000000000000000000000000000000000000000000000000000000000000000000000195af2210000000000000000000000000000000000000000000000000000000000000000000000000000000000000000000000000000000000000000000000000000000006676d676d676d0000000000000000000000000000000000000000000000000000",
        "nonce": "0x29",
        "chainId": "0x14a34"
      },
      "additionalContracts": [],
      "isFixedGasLimit": false
    }
  ],
  "receipts": [
    {
      "status": "0x1",
      "cumulativeGasUsed": "0x1527c1",
      "logs": [
        {
          "address": "0x6f725f3c39a6e65b336db0af1b65eb34ab9a8ae3",
          "topics": [
            "0xddf252ad1be2c89b69c2b068fc378daa952ba7f163c4a11628f55a4df523b3ef",
            "0x0000000000000000000000000000000000000000000000000000000000000000",
            "0x0000000000000000000000000000c1e5c9d12c8c52eb319af11da44bb84779d2"
          ],
          "data": "0x00000000000000000000000000000000000000000000000a9fb359147be1ebf9",
          "blockHash": "0x9a115798de7eaf4eb653b506c3279ef471ccfb9e0205bc6abf99c666c2977884",
          "blockNumber": "0x12805c4",
          "transactionHash": "0x2e0769710390a264d4c46d65fb93d7c36dfa18aff23a21e0db880e91ab2a8b3a",
          "transactionIndex": "0xd",
          "logIndex": "0x1e",
          "removed": false
        },
        {
          "address": "0x6f725f3c39a6e65b336db0af1b65eb34ab9a8ae3",
          "topics": [
            "0xd19736ba1cd2ffc8c99f90d6c6163e59274d333c89e471cd6668d93849835ac5",
            "0x0000000000000000000000000000000000000000000000000000000000000000",
            "0x0000000000000000000000000000c1e5c9d12c8c52eb319af11da44bb84779d2"
          ],
          "data": "0x00000000000000000000000000000000000000000000000a9fb359147be1ebf9000000000000000000000000000000000000000000000000000000000000000000000000000000000000000000000000000000000000000a9fb359147be1ebf900000000000000000000000000000000000000000000000a9fb359147be1ebf9",
          "blockHash": "0x9a115798de7eaf4eb653b506c3279ef471ccfb9e0205bc6abf99c666c2977884",
          "blockNumber": "0x12805c4",
          "transactionHash": "0x2e0769710390a264d4c46d65fb93d7c36dfa18aff23a21e0db880e91ab2a8b3a",
          "transactionIndex": "0xd",
          "logIndex": "0x1f",
          "removed": false
        },
        {
          "address": "0x68e9e94fb77a2d4c630ccc69c66715e9740b5d11",
          "topics": [
            "0x5b769452a2090142e059af5137c5b92a3e966cfb03b794cd01ac195d196c0001",
            "0x0000000000000000000000006f725f3c39a6e65b336db0af1b65eb34ab9a8ae3",
            "0x0000000000000000000000000000c1e5c9d12c8c52eb319af11da44bb84779d2",
            "0x0e974c4400000000000000000000000000000000000000000000000000000000"
          ],
          "data": "0x000000000000000000000000000000000000000000000000000000003e95ba8000000000000000000000000000000000000000000000000000000000000000400000000000000000000000000000000000000000000000000000000000000000",
          "blockHash": "0x9a115798de7eaf4eb653b506c3279ef471ccfb9e0205bc6abf99c666c2977884",
          "blockNumber": "0x12805c4",
          "transactionHash": "0x2e0769710390a264d4c46d65fb93d7c36dfa18aff23a21e0db880e91ab2a8b3a",
          "transactionIndex": "0xd",
          "logIndex": "0x20",
          "removed": false
        },
        {
          "address": "0x68e9e94fb77a2d4c630ccc69c66715e9740b5d11",
          "topics": [
            "0x5b769452a2090142e059af5137c5b92a3e966cfb03b794cd01ac195d196c0001",
            "0x0000000000000000000000006f725f3c39a6e65b336db0af1b65eb34ab9a8ae3",
            "0x0000000000000000000000000000c1e5c9d12c8c52eb319af11da44bb84779d2",
            "0x05c67f0f00000000000000000000000000000000000000000000000000000000"
          ],
          "data": "0x0000000000000000000000000000000000000000000000000000000012c684c000000000000000000000000000000000000000000000000000000000000000400000000000000000000000000000000000000000000000000000000000000000",
          "blockHash": "0x9a115798de7eaf4eb653b506c3279ef471ccfb9e0205bc6abf99c666c2977884",
          "blockNumber": "0x12805c4",
          "transactionHash": "0x2e0769710390a264d4c46d65fb93d7c36dfa18aff23a21e0db880e91ab2a8b3a",
          "transactionIndex": "0xd",
          "logIndex": "0x21",
          "removed": false
        },
        {
          "address": "0x68e9e94fb77a2d4c630ccc69c66715e9740b5d11",
          "topics": [
            "0x5b769452a2090142e059af5137c5b92a3e966cfb03b794cd01ac195d196c0001",
            "0x0000000000000000000000006f725f3c39a6e65b336db0af1b65eb34ab9a8ae3",
            "0x0000000000000000000000000000c1e5c9d12c8c52eb319af11da44bb84779d2",
            "0x00bad84400000000000000000000000000000000000000000000000000000000"
          ],
          "data": "0x0000000000000000000000000000000000000000000000000000000012c684c000000000000000000000000000000000000000000000000000000000000000400000000000000000000000000000000000000000000000000000000000000000",
          "blockHash": "0x9a115798de7eaf4eb653b506c3279ef471ccfb9e0205bc6abf99c666c2977884",
          "blockNumber": "0x12805c4",
          "transactionHash": "0x2e0769710390a264d4c46d65fb93d7c36dfa18aff23a21e0db880e91ab2a8b3a",
          "transactionIndex": "0xd",
          "logIndex": "0x22",
          "removed": false
        },
        {
          "address": "0x68e9e94fb77a2d4c630ccc69c66715e9740b5d11",
          "topics": [
            "0x5b769452a2090142e059af5137c5b92a3e966cfb03b794cd01ac195d196c0001",
            "0x0000000000000000000000006f725f3c39a6e65b336db0af1b65eb34ab9a8ae3",
            "0x0000000000000000000000000000c1e5c9d12c8c52eb319af11da44bb84779d2",
            "0x416c18ec00000000000000000000000000000000000000000000000000000000"
          ],
          "data": "0x000000000000000000000000000000000000000000000000000000001908b10000000000000000000000000000000000000000000000000000000000000000400000000000000000000000000000000000000000000000000000000000000000",
          "blockHash": "0x9a115798de7eaf4eb653b506c3279ef471ccfb9e0205bc6abf99c666c2977884",
          "blockNumber": "0x12805c4",
          "transactionHash": "0x2e0769710390a264d4c46d65fb93d7c36dfa18aff23a21e0db880e91ab2a8b3a",
          "transactionIndex": "0xd",
          "logIndex": "0x23",
          "removed": false
        },
        {
          "address": "0x6f725f3c39a6e65b336db0af1b65eb34ab9a8ae3",
          "topics": [
            "0xf349fe0373a901f0506d5343f4a872f385a7f0c26371d7b9e6bf5584b69d75fc",
            "0x0000000000000000000000000000c1e5c9d12c8c52eb319af11da44bb84779d2",
            "0x0000000000000000000000000000c1e5c9d12c8c52eb319af11da44bb84779d2",
            "0x0000000000000000000000000000c1e5c9d12c8c52eb319af11da44bb84779d2"
          ],
          "data": "0x0000000000000000000000000000c1e5c9d12c8c52eb319af11da44bb84779d2000000000000000000000000000000000000000000000000000000003e95ba800000000000000000000000000000000000000000000000000000000012c684c00000000000000000000000000000000000000000000000000000000012c684c0000000000000000000000000000000000000000000000000000000001908b100",
          "blockHash": "0x9a115798de7eaf4eb653b506c3279ef471ccfb9e0205bc6abf99c666c2977884",
          "blockNumber": "0x12805c4",
          "transactionHash": "0x2e0769710390a264d4c46d65fb93d7c36dfa18aff23a21e0db880e91ab2a8b3a",
          "transactionIndex": "0xd",
          "logIndex": "0x24",
          "removed": false
        },
        {
          "address": "0x6f725f3c39a6e65b336db0af1b65eb34ab9a8ae3",
          "topics": [
            "0x49c4606c4f7f601127761fb65a512e6bca424f62b165476cf1cfdfa51772a6ab",
            "0x0000000000000000000000000000c1e5c9d12c8c52eb319af11da44bb84779d2",
            "0x0000000000000000000000000000c1e5c9d12c8c52eb319af11da44bb84779d2",
            "0x0000000000000000000000000000000000000000000000000000000000000000"
          ],
          "data": "0x00000000000000000000000000000000000000000000000000000030e4f9b400000000000000000000000000000000000000000000000000000000007d2b750000000000000000000000000000000000000000000000000000000030e4f9b40000000000000000000000000000000000000000000000000a9fb359147be1ebf900000000000000000000000000000000000000000000000a9fb359147be1ebf9000000000000000000000000000000000000000000000000000000000000010000000000000000000000000000000000000000000000000a9fb359147be1ebf900000000000000000000000000000000000000000000000000000000000000000000000000000000000000000000000000000000000000000000000000000006676d676d676d0000000000000000000000000000000000000000000000000000",
          "blockHash": "0x9a115798de7eaf4eb653b506c3279ef471ccfb9e0205bc6abf99c666c2977884",
          "blockNumber": "0x12805c4",
          "transactionHash": "0x2e0769710390a264d4c46d65fb93d7c36dfa18aff23a21e0db880e91ab2a8b3a",
          "transactionIndex": "0xd",
          "logIndex": "0x25",
          "removed": false
        }
      ],
      "logsBloom": "0x00000001000000080000000000800040000000000000000000000000800000000000000000002000000000000000000000080000000000000000000000000040000000000000000000000008000000000000000000000000000000000000000000100000020000000000000000000800400000000000000500080810000000000000000000000000000000000000000000000080000000000800000000000000000000002080000200000000000040000200008000000000000080000800400000000006000000800000800000000004000000204000000000080000000021000000000000000020000000000000000000000000000802000000000000000000",
      "type": "0x2",
      "transactionHash": "0x2e0769710390a264d4c46d65fb93d7c36dfa18aff23a21e0db880e91ab2a8b3a",
      "transactionIndex": "0xd",
      "blockHash": "0x9a115798de7eaf4eb653b506c3279ef471ccfb9e0205bc6abf99c666c2977884",
      "blockNumber": "0x12805c4",
      "gasUsed": "0x25b39",
      "effectiveGasPrice": "0x187d0",
      "from": "0x0000c1e5c9d12c8c52eb319af11da44bb84779d2",
      "to": "0x6f725f3c39a6e65b336db0af1b65eb34ab9a8ae3",
      "contractAddress": null,
      "l1BaseFeeScalar": "0x44d",
      "l1BlobBaseFee": "0x1",
      "l1BlobBaseFeeScalar": "0xa118b",
      "l1Fee": "0x33ac759bf",
      "l1GasPrice": "0x19944a472",
      "l1GasUsed": "0x72a"
    }
  ],
  "libraries": [],
  "pending": [],
  "returns": {},
  "timestamp": 1734568553,
  "chain": 84532,
  "commit": "aa28087"
}