{
  "transactions": [
    {
      "hash": "0x1f901b81fb5b569cf7f6d4d8d601b44842e39fc9d3e0eef8a7ef995ef1bd1f9d",
      "transactionType": "CALL",
      "contractName": "Wow",
      "contractAddress": "0x6f725f3c39a6e65b336db0af1b65eb34ab9a8ae3",
      "function": "buy(address,address,address,string,uint8,uint256,uint160)",
      "arguments": [
        "0x0000c1E5C9d12c8c52eb319AF11dA44bb84779d2",
        "0x0000c1E5C9d12c8c52eb319AF11dA44bb84779d2",
        "0x0000000000000000000000000000000000000000",
        "gmgmgm",
        "0",
        "108900000000",
        "0"
      ],
      "transaction": {
        "from": "0x0000c1e5c9d12c8c52eb319af11da44bb84779d2",
        "to": "0x6f725f3c39a6e65b336db0af1b65eb34ab9a8ae3",
        "gas": "0x24d06",
        "value": "0x775f05a074000",
        "input": "0x472e64900000000000000000000000000000c1e5c9d12c8c52eb319af11da44bb84779d20000000000000000000000000000c1e5c9d12c8c52eb319af11da44bb84779d2000000000000000000000000000000000000000000000000000000000000000000000000000000000000000000000000000000000000000000000000000000e00000000000000000000000000000000000000000000000000000000000000000000000000000000000000000000000000000000000000000000000195af2210000000000000000000000000000000000000000000000000000000000000000000000000000000000000000000000000000000000000000000000000000000006676d676d676d0000000000000000000000000000000000000000000000000000",
        "nonce": "0x2a",
        "chainId": "0x14a34"
      },
      "additionalContracts": [],
      "isFixedGasLimit": false
    }
  ],
  "receipts": [
    {
      "status": "0x1",
      "cumulativeGasUsed": "0x924ee3",
      "logs": [
        {
          "address": "0x6f725f3c39a6e65b336db0af1b65eb34ab9a8ae3",
          "topics": [
            "0xddf252ad1be2c89b69c2b068fc378daa952ba7f163c4a11628f55a4df523b3ef",
            "0x0000000000000000000000000000000000000000000000000000000000000000",
            "0x0000000000000000000000000000c1e5c9d12c8c52eb319af11da44bb84779d2"
          ],
          "data": "0x000000000000000000000000000000000000000000019d38ec2afdbec6ad5f7f",
          "blockHash": "0x2f5c4e6785ee0bab62a98d19a0874995e6743aad7ce865c86fd0897e7e8c40f8",
          "blockNumber": "0x128077c",
          "transactionHash": "0x1f901b81fb5b569cf7f6d4d8d601b44842e39fc9d3e0eef8a7ef995ef1bd1f9d",
          "transactionIndex": "0x11",
          "logIndex": "0xe3",
          "removed": false
        },
        {
          "address": "0x6f725f3c39a6e65b336db0af1b65eb34ab9a8ae3",
          "topics": [
            "0xd19736ba1cd2ffc8c99f90d6c6163e59274d333c89e471cd6668d93849835ac5",
            "0x0000000000000000000000000000000000000000000000000000000000000000",
            "0x0000000000000000000000000000c1e5c9d12c8c52eb319af11da44bb84779d2"
          ],
          "data": "0x000000000000000000000000000000000000000000019d38ec2afdbec6ad5f7f0000000000000000000000000000000000000000000000000000000000000000000000000000000000000000000000000000000000019d438bde56d3428f4b78000000000000000000000000000000000000000000019d438bde56d3428f4b78",
          "blockHash": "0x2f5c4e6785ee0bab62a98d19a0874995e6743aad7ce865c86fd0897e7e8c40f8",
          "blockNumber": "0x128077c",
          "transactionHash": "0x1f901b81fb5b569cf7f6d4d8d601b44842e39fc9d3e0eef8a7ef995ef1bd1f9d",
          "transactionIndex": "0x11",
          "logIndex": "0xe4",
          "removed": false
        },
        {
          "address": "0x68e9e94fb77a2d4c630ccc69c66715e9740b5d11",
          "topics": [
            "0x5b769452a2090142e059af5137c5b92a3e966cfb03b794cd01ac195d196c0001",
            "0x0000000000000000000000006f725f3c39a6e65b336db0af1b65eb34ab9a8ae3",
            "0x0000000000000000000000000000c1e5c9d12c8c52eb319af11da44bb84779d2",
            "0x0e974c4400000000000000000000000000000000000000000000000000000000"
          ],
          "data": "0x0000000000000000000000000000000000000000000000000000098cb8c5280000000000000000000000000000000000000000000000000000000000000000400000000000000000000000000000000000000000000000000000000000000000",
          "blockHash": "0x2f5c4e6785ee0bab62a98d19a0874995e6743aad7ce865c86fd0897e7e8c40f8",
          "blockNumber": "0x128077c",
          "transactionHash": "0x1f901b81fb5b569cf7f6d4d8d601b44842e39fc9d3e0eef8a7ef995ef1bd1f9d",
          "transactionIndex": "0x11",
          "logIndex": "0xe5",
          "removed": false
        },
        {
          "address": "0x68e9e94fb77a2d4c630ccc69c66715e9740b5d11",
          "topics": [
            "0x5b769452a2090142e059af5137c5b92a3e966cfb03b794cd01ac195d196c0001",
            "0x0000000000000000000000006f725f3c39a6e65b336db0af1b65eb34ab9a8ae3",
            "0x0000000000000000000000000000c1e5c9d12c8c52eb319af11da44bb84779d2",
            "0x05c67f0f00000000000000000000000000000000000000000000000000000000"
          ],
          "data": "0x000000000000000000000000000000000000000000000000000002dd6aa18c0000000000000000000000000000000000000000000000000000000000000000400000000000000000000000000000000000000000000000000000000000000000",
          "blockHash": "0x2f5c4e6785ee0bab62a98d19a0874995e6743aad7ce865c86fd0897e7e8c40f8",
          "blockNumber": "0x128077c",
          "transactionHash": "0x1f901b81fb5b569cf7f6d4d8d601b44842e39fc9d3e0eef8a7ef995ef1bd1f9d",
          "transactionIndex": "0x11",
          "logIndex": "0xe6",
          "removed": false
        },
        {
          "address": "0x68e9e94fb77a2d4c630ccc69c66715e9740b5d11",
          "topics": [
            "0x5b769452a2090142e059af5137c5b92a3e966cfb03b794cd01ac195d196c0001",
            "0x0000000000000000000000006f725f3c39a6e65b336db0af1b65eb34ab9a8ae3",
            "0x0000000000000000000000000000c1e5c9d12c8c52eb319af11da44bb84779d2",
            "0x00bad84400000000000000000000000000000000000000000000000000000000"
          ],
          "data": "0x000000000000000000000000000000000000000000000000000002dd6aa18c0000000000000000000000000000000000000000000000000000000000000000400000000000000000000000000000000000000000000000000000000000000000",
          "blockHash": "0x2f5c4e6785ee0bab62a98d19a0874995e6743aad7ce865c86fd0897e7e8c40f8",
          "blockNumber": "0x128077c",
          "transactionHash": "0x1f901b81fb5b569cf7f6d4d8d601b44842e39fc9d3e0eef8a7ef995ef1bd1f9d",
          "transactionIndex": "0x11",
          "logIndex": "0xe7",
          "removed": false
        },
        {
          "address": "0x68e9e94fb77a2d4c630ccc69c66715e9740b5d11",
          "topics": [
            "0x5b769452a2090142e059af5137c5b92a3e966cfb03b794cd01ac195d196c0001",
            "0x0000000000000000000000006f725f3c39a6e65b336db0af1b65eb34ab9a8ae3",
            "0x0000000000000000000000000000c1e5c9d12c8c52eb319af11da44bb84779d2",
            "0x416c18ec00000000000000000000000000000000000000000000000000000000"
          ],
          "data": "0x000000000000000000000000000000000000000000000000000003d1e382100000000000000000000000000000000000000000000000000000000000000000400000000000000000000000000000000000000000000000000000000000000000",
          "blockHash": "0x2f5c4e6785ee0bab62a98d19a0874995e6743aad7ce865c86fd0897e7e8c40f8",
          "blockNumber": "0x128077c",
          "transactionHash": "0x1f901b81fb5b569cf7f6d4d8d601b44842e39fc9d3e0eef8a7ef995ef1bd1f9d",
          "transactionIndex": "0x11",
          "logIndex": "0xe8",
          "removed": false
        },
        {
          "address": "0x6f725f3c39a6e65b336db0af1b65eb34ab9a8ae3",
          "topics": [
            "0xf349fe0373a901f0506d5343f4a872f385a7f0c26371d7b9e6bf5584b69d75fc",
            "0x0000000000000000000000000000c1e5c9d12c8c52eb319af11da44bb84779d2",
            "0x0000000000000000000000000000c1e5c9d12c8c52eb319af11da44bb84779d2",
            "0x0000000000000000000000000000c1e5c9d12c8c52eb319af11da44bb84779d2"
          ],
          "data": "0x0000000000000000000000000000c1e5c9d12c8c52eb319af11da44bb84779d20000000000000000000000000000000000000000000000000000098cb8c52800000000000000000000000000000000000000000000000000000002dd6aa18c00000000000000000000000000000000000000000000000000000002dd6aa18c00000000000000000000000000000000000000000000000000000003d1e3821000",
          "blockHash": "0x2f5c4e6785ee0bab62a98d19a0874995e6743aad7ce865c86fd0897e7e8c40f8",
          "blockNumber": "0x128077c",
          "transactionHash": "0x1f901b81fb5b569cf7f6d4d8d601b44842e39fc9d3e0eef8a7ef995ef1bd1f9d",
          "transactionIndex": "0x11",
          "logIndex": "0xe9",
          "removed": false
        },
        {
          "address": "0x6f725f3c39a6e65b336db0af1b65eb34ab9a8ae3",
          "topics": [
            "0x49c4606c4f7f601127761fb65a512e6bca424f62b165476cf1cfdfa51772a6ab",
            "0x0000000000000000000000000000c1e5c9d12c8c52eb319af11da44bb84779d2",
            "0x0000000000000000000000000000c1e5c9d12c8c52eb319af11da44bb84779d2",
            "0x0000000000000000000000000000000000000000000000000000000000000000"
          ],
          "data": "0x000000000000000000000000000000000000000000000000000775f05a07400000000000000000000000000000000000000000000000000000001319718a5000000000000000000000000000000000000000000000000000000775f05a074000000000000000000000000000000000000000000000019d38ec2afdbec6ad5f7f000000000000000000000000000000000000000000019d438bde56d3428f4b780000000000000000000000000000000000000000000000000000000000000100000000000000000000000000000000000000000000019d438bde56d3428f4b7800000000000000000000000000000000000000000000000000000000000000000000000000000000000000000000000000000000000000000000000000000006676d676d676d0000000000000000000000000000000000000000000000000000",
          "blockHash": "0x2f5c4e6785ee0bab62a98d19a0874995e6743aad7ce865c86fd0897e7e8c40f8",
          "blockNumber": "0x128077c",
          "transactionHash": "0x1f901b81fb5b569cf7f6d4d8d601b44842e39fc9d3e0eef8a7ef995ef1bd1f9d",
          "transactionIndex": "0x11",
          "logIndex": "0xea",
          "removed": false
        }
      ],
      "logsBloom": "0x00000001000000080000000000800040000000000000000000000000800000000000000000002000000000000000000000080000000000000000000000000040000000000000000000000008000000000000000000000000000000000000000000100000020000000000000000000800400000000000000500080810000000000000000000000000000000000000000000000080000000000800000000000000000000002080000200000000000040000200008000000000000080000800400000000006000000800000800000000004000000204000000000080000000021000000000000000020000000000000000000000000000802000000000000000000",
      "type": "0x2",
      "transactionHash": "0x1f901b81fb5b569cf7f6d4d8d601b44842e39fc9d3e0eef8a7ef995ef1bd1f9d",
      "transactionIndex": "0x11",
      "blockHash": "0x2f5c4e6785ee0bab62a98d19a0874995e6743aad7ce865c86fd0897e7e8c40f8",
      "blockNumber": "0x128077c",
      "gasUsed": "0x192c1",
      "effectiveGasPrice": "0x187c1",
      "from": "0x0000c1e5c9d12c8c52eb319af11da44bb84779d2",
      "to": "0x6f725f3c39a6e65b336db0af1b65eb34ab9a8ae3",
      "contractAddress": null,
      "l1BaseFeeScalar": "0x44d",
      "l1BlobBaseFee": "0x1",
      "l1BlobBaseFeeScalar": "0xa118b",
      "l1Fee": "0x107c199b7",
      "l1GasPrice": "0x80af9dc4",
      "l1GasUsed": "0x745"
    }
  ],
  "libraries": [],
  "pending": [],
  "returns": {},
  "timestamp": 1734569433,
  "chain": 84532,
  "commit": "aa28087"
}